:100000000C946E010C9496010C9496010C9496013C
:100010000C9496010C9496010C9496010C94960104
:100020000C9496010C9496010C942D0A0C94B80A29
:100030000C9496010C9496010C9496010C949601E4
:100040000C9496010C9496010C9496010C949601D4
:100050000C945A040C9496010C9496010C94480547
:100060000C9496010C9496010C9496010C949601B4
:100070000C9496010C9496010C9496010C949601A4
:100080000C9496010C9496010C9496010C94960194
:100090000C9496010C9496010C9496010C94960184
:1000A0000C9496010C9496010C94960100000000AB
:1000B000240027002A002D00300000000000250049
:1000C00028002B002E003100000000002300260035
:1000D00029002C002F000404040404030405020278
:1000E00002020403020202020606060606060404D1
:1000F00002020204040802011040804010204080E7
:10010000408008020401804020100201108010206D
:1001100040400000000200080E0000030401000B34
:100120000000070605040100080A0B0C0D09080B66
:1001300000020202010009040000010202000005A1
:1001400024001001052401010104240206052406EF
:1001500000010705810310004009040100020A00A4
:10016000000007050202400000070583024000006E
:100170000403090422034100720064007500690051
:100180006E006F0020004C0065006F006E00610083
:10019000720064006F001803410072006400750073
:1001A00069006E006F0020004C004C0043001201FB
:1001B00000020000004041233680000101020001DE
:1001C00012010002020000404123368000010102BA
:1001D000000100C18081C105010902A1010901A13D
:1001E00000850105091901290315002501950375ED
:1001F0000181029501750581030501093009310965
:10020000381581257F750895038106C0C005010951
:1002100006A1018502050719E029E71500250175EA
:1002200001950881029501750881039506750815E9
:100230000025650507190029658100C00904020031
:1002400001030000000921010100012265000705EA
:10025000840340000100000000000000002A2B2859
:10026000000000000000000000000000000000008E
:1002700000000000002C9EB4A0A1A2A434A6A7A553
:10028000AE362D3738271E1F20212223242526B3E2
:1002900033B62EB7B89F8485868788898A8B8C8DE4
:1002A0008E8F909192939495969798999A9B9C9DF6
:1002B0002F3130A3AD350405060708090A0B0C0DD4
:1002C0000E0F101112131415161718191A1B1C1DD6
:1002D000AFB1B0B500006E0769093B0C11241FBE19
:1002E000CFEFDAE0DEBFCDBF11E0A0E0B1E0E6EE97
:1002F000FAE102C005900D92A637B107D9F715E0D3
:10030000A6E7B1E001C01D92A136B107E1F712E006
:10031000CCEDD2E004C02297FE010E946D0DC63DD7
:10032000D107C9F70E9432080C94710D0C9400009B
:1003300080913F018130C1F48091DD048EBD0DB408
:1003400007FEFDCF91B3A091DE04B0E0FD01E05FB8
:10035000FE4F8081982B91BB81B3A75EBE4F9C91CD
:10036000892381BB10923F012091DA043091DB0494
:100370004091390150913A012417350740F180919D
:100380003B0190913C018217930708F18091DC04B6
:10039000A82FB0E0F901E41BF50BEE0FFF1FEE0FE5
:1003A000FF1FEA0FFB1FEA54FE4FE081EF3F79F099
:1003B00080910F018E2380930F018093DD04AC5C4C
:1003C000BE4F8C918093DE0481E080933F01809149
:1003D0003D0190913E012817390709F063C0E09173
:1003E000DC04E330C1F5205D374049F51092DF04AD
:1003F0001092DB041092DA041092DC0482E390E0A5
:1004000090933A01809339018AEF90E090933C01F8
:1004100080933B0184E091E090933E0180933D0105
:1004200091E0909338018FEF80930F018093DD046A
:10043000809134018093DE0490933F0133C081E0CA
:100440008093DF0480ED97E090933E0180933D011F
:100450001092380127C0EF5FE093DC044C5F5E4FE1
:1004600050933A014093390180913B0190913C01B6
:100470008C5F9E4F90933C0180933B012C5F3E4FDD
:1004800030933E0120933D018FEF80930F018093C5
:10049000DD04F0E0EC5CFE4F80818093DE0481E0BF
:1004A00080933F018091DA049091DB040196909350
:1004B000DB048093DA040895AF92BF92DF92EF924B
:1004C000FF920F931F93CF93DF935B01883018F453
:1004D000D82E10E018C0F8EFDF2ED80E97E09D154B
:1004E00010F011E010C0E0EFDE2ED80EA7E0AD1541
:1004F00010F012E008C078EED72ED80EB7E0BD1588
:1005000008F464C013E0E82EFF24F701EE0FFF1F8C
:10051000EA58FE4F808191816AE070E00E94440DAC
:10052000EB01E29704C08AE090E00E94E905809127
:10053000DF048823C1F3479AEE0CFF1C012F10E063
:100540009E01220F331F220F331FCD2DD0E0EFEF7E
:10055000AE16EFEFBE0681F4F901E00FF11FEA5489
:10056000FE4FCE5DDE4F88819081892B808386E7A8
:1005700091E0E80EF91E26C0C5016AE070E00E9415
:10058000440DFB01F297C901800F911F8A549E4FC1
:10059000DE01AE5DBE4F2C91DC013C91232B2C93F0
:1005A000EE0FFF1FEE0FFF1FE00FF11FEA54FE4F8B
:1005B000C55DDE4F8881908189238083E6E7F1E085
:1005C000EE0EFF1ED701AD92BC924798DF91CF91FE
:1005D0001F910F91FF90EF90DF90BF90AF90089523
:1005E000EF92FF921F93CF93DF9387E061E00E9429
:1005F000F00664EF71E080E090E00E94900587E0F3
:1006000060E00E94F00611E0CFEFDFEF0AC18DE35A
:1006100095E00E944B07833291F084323CF48A309B
:1006200009F453C08D3009F0EDC04FC08035A1F002
:10063000863509F4A3C08C3409F0E4C0A6C0109339
:10064000E0041092E804D0934901C0934801D0938C
:100650004B01C0934A01E5C08091E004882391F1E9
:100660006091E804A0E4B1E0E62FF0E0EE51FB4F2A
:1006700040E050E00EC0808190E02D913D917C01E2
:10068000E29EC001E39E900DF29E900D1124480F52
:10069000591F319784E0E13EF80769F75093EA0467
:1006A0004093E904662321F4D093EA04C093E9045B
:1006B0008091E9049091EA04909349018093480164
:1006C0001092E0041093E10456C08091E104882365
:1006D00091F16091E804A0E4B1E0E62FF0E0EE5182
:1006E000FB4F40E050E00EC0808190E02D913D91A5
:1006F0007C01E29EC001E39E900DF29E900D1124BC
:10070000480F591F319784E0E13EF80769F750938D
:10071000EA044093E904662321F4D093EA04C093E9
:10072000E9048091E9049091EA0490934B0180934D
:100730004A011092E1042091480130914901203290
:100740003105C8F460914A0170914B01CB01845F7F
:100750009140815D974020F08FEF6F3F780759F40B
:10076000822F0E945C02D0934901C0934801D0932C
:100770004B01C0934A011092E80453C08DE395E009
:1007800060E071E00E94A3084CC08091E0048823DF
:1007900091F16091E804A0E4B1E0E62FF0E0EE51C1
:1007A000FB4F40E050E00EC0808190E02D913D91E4
:1007B0007C01E29EC001E39E900DF29E900D1124FB
:1007C000480F591F319784E0E13EF80769F75093CD
:1007D000EA044093E904662321F4D093EA04C09329
:1007E000E9048091E9049091EA049093490180938F
:1007F00048011092E004809148016FEF7FEF0E9462
:100800005C020FC080538A3060F49091E804943009
:1008100040F4E92FF0E0EE51FB4F80839F5F90930F
:10082000E8048DE395E00E942407892BD1F3EFCEF5
:1008300087E061E00E9453068FEF80BB8DE395E077
:1008400060E072EC0E9423070E94290584E00E9468
:100850001805E6E7F1E08CED95E08193919321E0B6
:10086000E63BF207D1F780E090E04FEF09C040830C
:100870003496E217F307D9F701968530910539F0E0
:10088000FC01EA54FE4F9C0126523B4FF0CF8BEE09
:1008900094E04AE050E060E070E00E94F0048BEEEB
:1008A00094E068E971E02FEF3FEF4FEF5FEF0E94B8
:1008B000F80408951F920F920FB60F9211242F93F0
:1008C0003F934F935F936F937F938F939F93AF93D8
:1008D000BF93EF93FF93E091EE04F091EF0409953D
:1008E000FF91EF91BF91AF919F918F917F916F9108
:1008F0005F914F913F912F910F900FBE0F901F90DE
:100900001895FC01A3E0440F551F661F771FAA9599
:10091000D1F7403080E0580781E0680780E0780731
:1009200014F481E010C033E07595679557954795AD
:100930003A95D1F7403080E0580781E0680780E0C1
:1009400078071CF482E0828339C023E075956795AF
:10095000579547952A95D1F7403080E0580781E0B8
:10096000680780E0780714F483E0EDCF92E0759596
:100970006795579547959A95D1F7403080E058078D
:1009800081E0680780E0780714F484E0DCCF82E03F
:1009900075956795579547958A95D1F7403080E0D2
:1009A000580781E0680780E0780714F485E0CBCF32
:1009B00085E082834FEF5FEF60E070E0518340831A
:1009C000509387004093860080918100887F8093B8
:1009D0008100809181009281892B8093810008950C
:1009E0001092800020E1209381000E9481040895EC
:1009F0000F931F93CF93DF93EC018B011216130615
:100A00001406150624F4BA01A9010E9481041C836E
:100A10000B8381E080936F007894809181009A81AC
:100A2000892B80938100DF91CF911F910F910895C1
:100A30002CB5382F33702C7F322B3CBD2DB590E078
:100A4000959587959595879581702E7F822B8DBD85
:100A500008958FE061E00E94530680E161E00E940A
:100A6000530681E161E00E9453068FE060E00E943E
:100A7000F00680E160E00E94F00681E161E00E9402
:100A8000F0068CB580618CBD8CB580648CBD0895FA
:100A90001F920F920FB60F9211242F933F938F93B3
:100AA0009F93AF93BF938091F4049091F504A0912C
:100AB000F604B091F7043091F8040196A11DB11D20
:100AC000232F2D5F2D3720F02D570196A11DB11D2D
:100AD0002093F8048093F4049093F504A093F60413
:100AE000B093F7048091F0049091F104A091F20486
:100AF000B091F3040196A11DB11D8093F004909371
:100B0000F104A093F204B093F304BF91AF919F91CD
:100B10008F913F912F910F900FBE0F901F901895BE
:100B20009B01AC017FB7F8948091F0049091F1049F
:100B3000A091F204B091F30466B5A89B05C06F3F85
:100B400019F00196A11DB11D7FBFBA2FA92F982FB3
:100B50008827860F911DA11DB11D62E0880F991F86
:100B6000AA1FBB1F6A95D1F7BC012DC0FFB7F8942F
:100B70008091F0049091F104A091F204B091F304FB
:100B8000E6B5A89B05C0EF3F19F00196A11DB11D68
:100B9000FFBFBA2FA92F982F88278E0F911DA11D57
:100BA000B11DE2E0880F991FAA1FBB1FEA95D1F77C
:100BB000861B970B885E9340C8F22150304040401E
:100BC000504068517C4F211531054105510571F6A2
:100BD0000895019739F0880F991F880F991F029780
:100BE0000197F1F70895789484B5826084BD84B547
:100BF000816084BD85B5826085BD85B5816085BD18
:100C0000EEE6F0E0808181608083E1E8F0E0108230
:100C1000808182608083808181608083E0E8F0E071
:100C2000808181608083E1EBF0E08081846080835B
:100C3000E0EBF0E0808181608083E1E9F0E0808199
:100C400082608083808181608083E0E9F0E0808140
:100C500081608083E1ECF0E080818460808380812A
:100C600082608083808181608083E3ECF0E080811A
:100C700081608083E0ECF0E0808182608083E2EC40
:100C8000F0E0808181608083EAE7F0E08081846029
:100C90008083808182608083808181608083808185
:100CA000806880830895CF93DF93482F50E0CA0176
:100CB0008C509F4FFC0134914A525F4FFA0184914E
:100CC000882369F190E0880F991FFC01E455FF4FDC
:100CD000A591B491FC01E654FF4FC591D4916623D0
:100CE00051F42FB7F8948C91932F909589238C937E
:100CF000888189230BC0623061F42FB7F8948C91FE
:100D0000932F909589238C938881832B88832FBF81
:100D100006C09FB7F8948C91832B8C939FBFDF9173
:100D2000CF9108958730C1F1883080F48330F9F095
:100D3000843030F4813029F1823009F050C024C071
:100D40008430C9F0863009F04AC022C08A3091F15F
:100D50008B3030F4883031F1893009F040C026C042
:100D60008C3091F18C3060F18E30C9F533C08091B8
:100D700080008F7703C0809180008F7D80938000FA
:100D8000089584B58F7702C084B58F7D84BD0895A2
:100D90008091B0008F7703C08091B0008F7D8093E9
:100DA000B0000895809190008F7707C080919000E7
:100DB0008F7D03C080919000877F8093900008957D
:100DC0008091C0008F7703C08091C0008F7D809399
:100DD000C00008958091C200877F8093C20008956B
:100DE000FF920F931F93F62E482F50E0CA018E5E9C
:100DF0009E4FFC012491CA018C509F4FFC0114911D
:100E00004A525F4FFA0104910023C9F0222319F0DE
:100E1000822F0E949206E02FF0E0EE0FFF1FE654B3
:100E2000FF4FA591B4919FB7F894FF2021F48C91C6
:100E30001095812302C08C91812B8C939FBF1F91B1
:100E40000F91FF90089508952091390530913A054A
:100E500080913B0590913C05281B390B2F73307016
:100E6000C90108952091390530913A0580913B05DB
:100E700090913C052817390719F42FEF3FEF09C06F
:100E8000E0913B05F0913C05E750FB4F8081282F16
:100E900030E0C90108952091390530913A058091DB
:100EA0003B0590913C052817390719F42FEF3FEFC8
:100EB00013C0E0913B05F0913C05E750FB4F2081CA
:100EC00080913B0590913C0501968F7390709093B3
:100ED0003C0580933B0530E0C90108951092400520
:100EE00010923F0588EE93E0A0E0B0E080934105CA
:100EF00090934205A0934305B09344058AE591E0A1
:100F000090933E0580933D0508950F931F93DF93C3
:100F1000CF930F92CDB7DEB78C01698380915301D7
:100F2000882369F083E0BE016F5F7F4F41E050E0AE
:100F30000E9488091816190614F49C0107C081E064
:100F400090E0F8019383828320E030E0C9010F90A4
:100F5000CF91DF911F910F91089583E00E945F0967
:100F6000089582E00E94EA08482F209139053091C7
:100F70003A052F5F3F4F2F73307080913B05909162
:100F80003C052817390759F0E0913905F0913A05E9
:100F9000E750FB4F408330933A052093390508957D
:100FA000FC0180818E5F808380E86EE271E042E424
:100FB00050E00E9403090895FC0181819081913ADB
:100FC00059F4813209F04CC080E06CE471E047E0F4
:100FD00050E00E94030942C0913209F041C08032C2
:100FE00039F48CE491E067E070E00E94470936C074
:100FF000823209F035C082818093530180914C0187
:1010000090914D01A0914E01B0914F01805B9440B1
:10101000A040B04019F58091530180FD12C087E7D0
:1010200097E790930108809300082BE088E190E017
:101030000FB6F894A895809360000FBE20936000CF
:101040000DC088E10FB6F8948093600010926000A4
:101050000FBEA895109201081092000881E0089533
:1010600080E00895CF93DF930E94F30583E595E038
:101070000E946A090E941804C0E0D0E00E94F002B9
:101080002097E1F30E940000F9CFCF92DF92EF9218
:10109000FF920F931F93CF93DF937C016B018A0123
:1010A000C0E0D0E00FC0D6016D916D01D701ED9188
:1010B000FC910190F081E02DC7010995C80FD91F5F
:1010C000015010400115110571F7CE01DF91CF914C
:1010D0001F910F91FF90EF90DF90CF900895EF92C6
:1010E000FF920F931F938C01DC01ED91FC91019015
:1010F000F081E02D6DE009957C01D801ED91FC9126
:101100000190F081E02DC8016AE009959C012E0D47
:101110003F1DC9011F910F91FF90EF900895CF934C
:10112000DF93DB010D900020E9F71197A61BB70BA9
:10113000EC01E881F9810280F381E02DAD01099590
:10114000DF91CF910895EF92FF920F931F937C014F
:101150000E948F088C01C7010E946F08080F191F99
:10116000C8011F910F91FF90EF900895282F809153
:101170004D058823C1F057FF1AC015C028989093D9
:101180004C058091F1008193E217F307B9F74115FF
:10119000510539F08091F200882319F48BE6809391
:1011A000E800AFBF02C04FEF5FEFCA010895AFB7CD
:1011B000F89427702093E9008091F200282F30E006
:1011C000241735070CF4A901FB019B01240F311DE5
:1011D00094E6DACFDF93CF930F92CDB7DEB7BE019F
:1011E0006F5F7F4F41E050E00E94B608019719F011
:1011F0002FEF3FEF03C08981282F30E0C9010F9006
:10120000CF91DF910895FF920F931F93F82E142F23
:10121000052F4091500550915105212F302FC901C4
:10122000DC01FB016EEF29C0F7FE02C0949101C002
:10123000908120914E0530914F0524173507ACF46D
:101240008091E8008570E1F38091E80082FF03C09F
:101250002FEF3FEF17C09093F100C90101968F73F4
:101260009070892B11F46093E8002F5F3F4F30930B
:101270004F0520934E05119731961097A9F6812FAF
:10128000902F9C01C9011F910F91FF9008959C011F
:101290008091E80082FFFCCFF901260F311D03C0C9
:1012A0008091F1008193E217F307D1F7289884E643
:1012B00080934C058BEF8093E800CB0108958093D9
:1012C000E9008091F200882319F08AE38093E80016
:1012D0000895089510924D0581E08093D70080EA2B
:1012E0008093D80082E189BD09B400FEFDCF61E0A2
:1012F00070E080E090E00E94900580E98093D80043
:101300008CE08093E2001092E000559A209A0895B4
:101310005F926F927F928F929F92AF92BF92CF9285
:10132000DF92EF92FF920F931F93CF93DF93E82EFC
:10133000842E752E80914D05882371F18B01242F09
:10134000352FC901EC017AEFF72E67E0962E9E202B
:1013500050E4552E8E2D90E040E2A42EB12CA82210
:10136000B9223AE3632E20E4C22ED12CC822D9221E
:1013700058C09FB7F8949092E9008091E80085FDED
:1013800002C020E004C08091F200252D281B9FBFE1
:10139000222361F4FA9419F42FEF3FEF4DC061E07E
:1013A00070E080E090E00E9490053BC0822F90E0CA
:1013B000C817D9070CF42C2FC21BD1094FB7F894CA
:1013C0009092E900A114B10421F406C01092F1003A
:1013D00021502223D9F719C0E7FC03C0F801922F4E
:1013E00010C0C801322F06C0FC010196E491E093C1
:1013F000F10031503323C1F706C081918093F10091
:1014000091509923D1F7020F111D8091E80085FFBB
:1014100005C0209729F4C114D10411F06092E800AE
:101420004FBF209709F0A5CF5D9884E680934B05C8
:10143000282D372DC9019C01C901DF91CF911F9142
:101440000F91FF90EF90DF90CF90BF90AF909F9063
:101450008F907F906F905F9008951F920F920FB6BC
:101460000F9211241F932F933F934F935F936F938A
:101470007F938F939F93AF93BF93EF93FF9380914D
:10148000E1001092E100982F83FF0FC01092E90055
:1014900081E08093EB001092EC0082E38093ED00FA
:1014A00010924D0588E08093F00092FF36C083E0F3
:1014B0008093E9008091F200882349F08AE38093C9
:1014C000E80005C08DE395E00E94B10701C012E07D
:1014D0009FB7F8941093E9008091F2009FBF882392
:1014E00089F780914B05882351F080914B058150FD
:1014F00080934B0580914B05882309F45D9A809178
:101500004C05882351F080914C05815080934C0507
:1015100080914C05882309F4289AFF91EF91BF919F
:10152000AF919F918F917F916F915F914F913F917B
:101530002F911F910F900FBE0F901F9018950F9332
:101540001F93DF93CF930F92CDB7DEB719828E0131
:101550000F5F1F4FC8010E94D007C8010E94380DBD
:10156000898190E00F90CF91DF911F910F910895A5
:101570001F920F920FB60F921124EF92FF921F93BA
:101580002F933F934F935F936F937F938F939F938B
:10159000AF93BF93EF93FF93DF93CF93CDB7DEB7B6
:1015A0006197DEBFCDBF1092E9008091E80083FF14
:1015B0000FC1FE0131969E01275F3F4F03C080910E
:1015C000F1008193E217F307D1F7289884E680931E
:1015D0004C0582EF8093E800998197FF05C08091C8
:1015E000E80080FFFCCF03C08EEF8093E800292F36
:1015F00030E0C90180769070892B09F0C2C08A81E1
:10160000882329F41092F1001092F100D6C08130A5
:1016100009F4D3C0833009F4D0C0853049F48091F7
:10162000E80080FFFCCF8B8180688093E300C5C019
:10163000863009F07CC01C81EF80F8841230C1F53F
:101640001092E90010924F0510924E05109251052C
:10165000109250050E949F0A99E0FE013996DF0121
:10166000292F1D922A95E9F799871A8791E09E877D
:1016700090E8988B9AEF998B20914E0530914F0509
:10168000275F3F4F3C872B878D871092E900109290
:101690004F0510924E05F0925105E092500580E002
:1016A000BF0149E050E00E9403090E949F0A85C0E3
:1016B0001092E90010924F0510924E05F0925105DC
:1016C000E0925005123241F482E290E00E94300D27
:1016D000892B09F476C071C0113079F488E0E816DE
:1016E000F10419F481E0809352058091520588231A
:1016F00009F06BC0EEEAF1E013C0133009F061C0ED
:101700008B81882319F4E0E7F1E00AC0823019F4F4
:10171000E4E7F1E005C0813009F053C0E6E9F1E00B
:10172000449180E8BF0150E00E94030946C0873021
:1017300009F447C0883021F481E08093F1003DC076
:101740008930D9F523703070232BD9F5E3EDF1E022
:1017500091E031E026E39093E9003093EB0084912F
:101760008093EC002093ED009F5F3196953099F7C0
:101770008EE78093EA001092EA008B8180934D05FA
:101780001CC08F8198851092E90010924F0510922D
:101790004E0590935105809350058D81882329F43F
:1017A000CE0101960E94DC0706C0823051F4CE01C2
:1017B00001960E94010C882321F08EEF8093E800AF
:1017C00007C081E28093EB0003C0E0ECF1E0A8CF1A
:1017D0006196DEBFCDBFCF91DF91FF91EF91BF91B9
:1017E000AF919F918F917F916F915F914F913F91B9
:1017F0002F911F91FF90EF900F900FBE0F901F90B1
:101800001895FC0191818081813A31F4913089F001
:1018100080E0933089F40DC0813269F49B3021F46B
:1018200082818093540105C09A3029F4828180938B
:10183000550181E0089580E00895EF92FF920F93A3
:101840001F938C01E62EDC01ED91FC910480F58163
:10185000E02D0995F82ED801ED91FC910680F781D5
:10186000E02DC8016E2D09958F2D90E01F910F91ED
:10187000FF90EF9008951092540510925805109221
:1018800057058CE691E09093560580935505089591
:10189000EF92FF920F931F93DF93CF930F92CDB7E9
:1018A000DEB789838B017A0184E0BE016F5F7F4FD1
:1018B00041E050E00E94880984E4B801A7010E9439
:1018C00088090F90CF91DF911F910F91FF90EF90BA
:1018D000089582E048E050E00E94480C0895FC0121
:1018E0001682178210861186128613861482349609
:1018F000BF010E94690C0895DC01683810F0685837
:1019000029C0E62FF0E067FF13C0E058F04081E007
:1019100090E002C0880F991FEA95E2F7809514962F
:101920002C911497282314962C93149760E012C0DE
:10193000EB5AFD4F6491662319F420E030E01DC09E
:1019400067FF08C014968C9114978D7F14968C9322
:1019500014976F77FD0190E0662321F0868186174A
:1019600009F416829F5F31969630B1F7CD01149637
:10197000BD010E94690C21E030E0C9010895CF93B8
:10198000DF93DC01683810F0685825C0E62FF0E0DE
:1019900067FF12C0E058F04081E090E002C0880F7D
:1019A000991FEA95E2F714962C911497282B149618
:1019B0002C93149760E00FC0EB5AFD4F649166239F
:1019C000D9F167FF08C014968C9114978260149621
:1019D0008C9314976F7716968C9116978617A9F1AA
:1019E00017968C911797861781F118968C911897F6
:1019F000861759F119968C911997861731F11A9615
:101A00008C911A97861709F11B968C911B97861754
:101A1000E1F0ED01E0E0F0E09E2F8E81882321F4DB
:101A2000EA0FFB1F668306C09F5F31962196E63062
:101A3000F10591F7963049F481E090E013969C937C
:101A40008E93129720E030E007C0CD011496BD01BF
:101A50000E94690C21E030E0C901DF91CF91089527
:101A600080E867ED71E045E650E00E9403090895C3
:101A7000FC0180818F5F808380E86CE372E049E144
:101A800050E00E940309089597FB092E07260AD00B
:101A900077FD04D00CD006D000201AF47095619523
:101AA0007F4F0895F6F7909581959F4F0895AA1B53
:101AB000BB1B51E107C0AA1FBB1FA617B70710F039
:101AC000A61BB70B881F991F5A95A9F7809590956B
:101AD000BC01CD010895EE0FFF1F0590F491E02D9C
:101AE0000994F894FFCF534552564F544F52333216
:101AF0005F76310A00FF010204081020408000FEDA
:101B0000FDFBF7EFDFBF7FFF0804020180402010DC
:101B100000F7FBFDFE7FBFDFEFFF05060704013284
:101B200000FA0004010101000A006400E803FFFF5D
:101B3000FFFF00E1000000000000010100000000C4
:101B40008507450824074B073207AD07B10700009A
:101B500000001D0C4508BF0C7C0C6F0CFFFFFFFF45
:101B6000FFFFFFFFFFFFFFFFFFFFFFFFFFFFFFFF85
:101B7000FFFFFFFFFFFFFFFFFFFFFFFFFFFFFFFF75
:101B8000FFFF00E100000000000001010000000074
:101B9000AD076D084C0773075A07D507D907000032
:101BA0000000450C6D08E70CA40C970CFFFFFFFF2D
:101BB000FFFFFFFFFFFFFFFFFFFFFFFFFFFFFFFF35
:101BC000FFFFFFFFFFFFFFFFFFFFFFFFFFFFFFFF25
:101BD000FFFFFFFFFFFFFFFFFFFFFFFFFFFFFFFF15
:101BE000FFFFFFFFFFFFFFFFFFFFFFFFFFFFFFFF05
:101BF000FFFFFFFFFFFFFFFFFFFFFFFFFFFFFFFFF5
:101C00002C911497282314962C93149760E012C0FB
:101C1000EB5AFD4F6491662319F420E030E01DC0BB
:101C200067FF08C014968C9114978D7F14968C933F
:101C300014976F77FD0190E0662321F08681861767
:101C400009F416829F5F31969630B1F7CD01149654
:101C5000BD010E94D90D21E030E0C9010895CF9364
:101C6000DF93DC01683810F0685825C0E62FF0E0FB
:101C700067FF12C0E058F04081E090E002C0880F9A
:101C8000991FEA95E2F714962C911497282B149635
:101C90002C93149760E00FC0EB5AFD4F64916623BC
:101CA000D9F167FF08C014968C911497826014963E
:101CB0008C9314976F7716968C9116978617A9F1C7
:101CC00017968C911797861781F118968C91189713
:101CD000861759F119968C911997861731F11A9632
:101CE0008C911A97861709F11B968C911B97861772
:101CF000E1F0ED01E0E0F0E09E2F8E81882321F4F9
:101D0000EA0FFB1F668306C09F5F31962196E6307F
:101D1000F10591F7963049F481E090E013969C9399
:101D20008E93129720E030E007C0CD011496BD01DC
:101D30000E94D90D21E030E0C901DF91CF910895D3
:101D400080E867ED71E045E650E00E94730A08956F
:101D5000FC0180818F5F808380E86CE372E049E161
:101D600050E00E94730A0895629FD001739FF001B2
:101D7000829FE00DF11D649FE00DF11D929FF00D1B
:101D8000839FF00D749FF00D659FF00D9927729F52
:101D9000B00DE11DF91F639FB00DE11DF91FBD01DD
:101DA000CF011124089597FB092E07260AD077FD4D
:101DB00004D02ED006D000201AF4709561957F4F84
:101DC0000895F6F7909581959F4F0895A1E21A2EF8
:101DD000AA1BBB1BFD010DC0AA1FBB1FEE1FFF1FCF
:101DE000A217B307E407F50720F0A21BB30BE40B1F
:101DF000F50B661F771F881F991F1A9469F7609566
:101E00007095809590959B01AC01BD01CF0108951F
:101E1000AA1BBB1B51E107C0AA1FBB1FA617B70710
:101E200010F0A61BB70B881F991F5A95A9F780952C
:101E30009095BC01CD010895EE0FFF1F0590F49120
:101E4000E02D0994F894FFCF536572766F3A200025
:101E5000506F736974696F6E3A2000230050007EE2
:101E6000436F6D6D616E642053746172747E00699E
:101E70006E76616C6964007E436F6D6D616E642087
:101E8000456E647E00646562756720656E61626C94
:101E900065640064656275672064697361626C657E
:101EA0006400534552564F544F5233325F76302EB2
:101EB00031006B696C6C696E6720736572766F2098
:101EC0002300FF010204081020408000FEFDFBF704
:101ED000EFDFBF7FFF080402018040201000F7FB06
:101EE000FDFE7FBFDFEFFF05060704013200FA00A9
:101EF000040101000A006400E803FFFFFFFF00E1A6
:101F00000000000000000101000000000E08CE08E3
:101F1000AD07D407BB0736083A08000000008D0D56
:101F2000CE082F0EEC0DDF0DFFFFFFFFFFFFFFFFC1
:101F3000FFFFFFFFFFFFFFFFFFFFFFFFFFFFFFFFB1
:101F4000FFFFFFFFFFFFFFFFFFFFFFFFFFFFFFFFA1
:101F5000FFFFFFFFFFFFFFFFFFFFFFFFFFFFFFFF91
:101F6000FFFFFFFFFFFFFFFFFFFFFFFFFFFFFFFF81
:101F7000FFFFFFFFFFFFFFFFFFFFFFFFFFFFFFFF71
:101F80006E2D09958F2D90E01F910F91FF90EF908E
:101F900008951092770610927B0610927A0686EECC
:101FA00091E090937906809378060895EF92FF92DE
:101FB0000F931F93DF93CF930F92CDB7DEB7898333
:101FC0008B017A0184E0BE016F5F7F4F41E050E0FA
:101FD0000E94150C84E4B801A7010E94150C0F9013
:101FE000CF91DF911F910F91FF90EF90089582E0C4
:101FF00048E050E00E94D60F0895FC011682178237
:10200000108611861286138614823496BF010E94B0
:10201000F70F0895DC01683810F0685829C0E62FE2
:10202000F0E067FF13C0E058F04081E090E002C0AC
:10203000880F991FEA95E2F7809514962C911497D2
:10204000282314962C93149760E012C0EB5AFD4F8E
:102050006491662319F420E030E01DC067FF08C0DA
:1020600014968C9114978D7F14968C9314976F7798
:10207000FD0190E0662321F08681861709F416821F
:102080009F5F31969630B1F7CD011496BD010E9445
:10209000F70F21E030E0C9010895CF93DF93DC0111
:1020A000683810F0685825C0E62FF0E067FF12C0CE
:1020B000E058F04081E090E002C0880F991FEA9557
:1020C000E2F714962C911497282B14962C931497BE
:1020D00060E00FC0EB5AFD4F64916623D9F167FFB2
:1020E00008C014968C911497826014968C93149760
:1020F0006F7716968C9116978617A9F117968C9183
:102100001797861781F118968C911897861759F1B1
:1021100019968C911997861731F11A968C911A9706
:10212000861709F11B968C911B978617E1F0ED013C
:10213000E0E0F0E09E2F8E81882321F4EA0FFB1F60
:10214000668306C09F5F31962196E630F10591F7D0
:10215000963049F481E090E013969C938E93129709
:1021600020E030E007C0CD011496BD010E94F70FBA
:1021700021E030E0C901DF91CF91089580E867ED5B
:1021800071E045E650E00E94900B0895FC018081CB
:102190008F5F808380E86CE372E049E150E00E9449
:1021A000900B0895629FD001739FF001829FE00D14
:1021B000F11D649FE00DF11D929FF00D839FF00DC6
:1021C000749FF00D659FF00D9927729FB00DE11D72
:1021D000F91F639FB00DE11DF91FBD01CF0111244F
:1021E000089597FB092E07260AD077FD04D02ED03C
:1021F00006D000201AF4709561957F4F0895F6F788
:10220000909581959F4F0895A1E21A2EAA1BBB1BA2
:10221000FD010DC0AA1FBB1FEE1FFF1FA217B307B2
:10222000E407F50720F0A21BB30BE40BF50B661FC8
:10223000771F881F991F1A9469F76095709580958C
:1022400090959B01AC01BD01CF010895AA1BBB1B5A
:1022500051E107C0AA1FBB1FA617B70710F0A61BA6
:10226000B70B881F991F5A95A9F780959095BC01C7
:10227000CD010895EE0FFF1F0590F491E02D099414
:10228000F894FFCF536572766F3A2000506F7369F0
:1022900074696F6E3A2000230050007E436F6D6DAD
:1022A000616E642053746172747E00696E76616C35
:1022B0006964007E436F6D6D616E6420456E647E5F
:1022C00000646562756720656E61626C65640064B8
:1022D000656275672064697361626C65640053456B
:1022E00052564F544F5233325F76302E31006B6965
:1022F0006C6C696E6720736572766F202300FF0136
:102300000204081020408000FEFDFBF7EFDFBF7FD6
:10231000FF080402018040201000F7FBFDFE7FBF94
:10232000DFEFFF05060704013200FA000401010097
:102330000A006400E803FFFFFFFF00E10000000067
:1023400000000101000000002D07EB09CC06F30698
:10235000DA0655075907000000004F09EB09E308AA
:102360001409F4083D0900000000AB0FEB094D1003
:102370000A10FD0FFFFFFFFFFFFFFFFFFFFFFFFF43
:10238000561013100610FFFFFFFFFFFFFFFFFFFFB8
:10239000FFFFFFFFFFFFFFFFFFFFFFFFFFFFFFFF4D
:1023A000FFFFFFFFFFFFFFFFFFFFFFFFFFFFFFFF3D
:1023B000FFFFFFFFFFFFFFFFFFFFFFFFFFFFFFFF2D
:1023C000FFFFFFFFFFFFFFFFFFFFFFFFFFFFFFFF1D
:1070000055C000006EC000006CC000006AC00000E7
:1070100068C0000066C0000064C0000062C00000DC
:1070200060C000005EC00000EEC400005AC0000056
:1070300058C0000056C0000054C0000052C00000FC
:1070400050C0000078C000004CC000004AC00000E2
:1070500048C0000046C0000044C0000042C000001C
:1070600040C000003EC000003CC000003AC000002C
:1070700038C0000036C0000034C0000032C000003C
:1070800030C000002EC000002CC000002AC000004C
:1070900028C0000026C0000024C0000022C000005C
:1070A00020C000001EC000001CC0000011241FBE34
:1070B000CFEFDAE0DEBFCDBF11E0A0E0B1E0EAE261
:1070C000FFE702C005900D92A83AB107D9F711E089
:1070D000A8EAB1E001C01D92AE3BB107E1F78FD342
:1070E00022C78ECFF89410926F00109281001092F8
:1070F00085001092840081E085BF15BE47985D9A97
:10710000289A0C94000008952091B2013091B301A7
:107110002F5F3F4F3093B3012093B201932F37FF7E
:1071200003C08EEF831B982F990F921710F4479886
:107130000895479A08951F920F920FB60F92112447
:107140002F938F939F93EF93FF931092850010924C
:1071500084008091A8019091A901009741F00197C6
:107160009093A9018093A801892B09F45D9A8091DD
:10717000AA019091AB01009741F001979093AB0168
:107180008093AA01892B09F4289AE0E0F0E0859128
:1071900094918F5F9F4F49F08091AC019091AD0128
:1071A00001969093AD018093AC01FF91EF919F9177
:1071B0008F912F910F900FBE0F901F90189584E024
:1071C0008093E9000DC08091E8008B778093E80000
:1071D00003C08EB3882351F08091E80082FFF9CF7D
:1071E0008091E80085FFEFCF8091F1000895982FFE
:1071F00083E08093E9008091E80085FD0DC08091D7
:10720000E8008E778093E80003C08EB3882369F08E
:107210008091E80080FFF9CF9093F1005D9884E6BB
:1072200090E09093A9018093A80108954F925F92F6
:107230006F927F928F929F92AF92BF92CF92DF9286
:10724000EF92FF920F931F93CF93DF9384E080938D
:10725000E9008091E80082FF57C2289884E690E018
:107260009093AB018093AA01AADF182F853481F493
:107270008CE49DE19093AD018093AC0107B600FCD6
:10728000FDCFF999FECF81E180935700E89503C0C7
:10729000843519F494DF8DE00DC28C34E1F3803530
:1072A000D1F3843721F484E4A2DF80E003C2813685
:1072B00011F489E5FFC18134B1F481DF182F7FDF3C
:1072C00090E0880F991FAA2797FDA095BA2F312F1C
:1072D000330F20E0442737FD4095542F822B932B0A
:1072E000A42BB52BB8C1803711F483E5E3C18335F6
:1072F00049F4C0E0D1E089917ADF21E0C730D207BC
:10730000D1F7D9C1863521F481E371DF80E3D2C1A1
:10731000833731F487E86BDF85E969DF8EE1CAC125
:107320008536B9F4E0E0F0E093E085E09093570013
:10733000E89507B600FCFDCF80935700E89507B6A7
:1073400000FCFDCFE058FF4FA0E7E030FA0771F7EF
:10735000A2CF823739F4E1E0F0E089E08093570072
:107360008491A8C1863439F4E0E0F0E089E08093AC
:10737000570084919FC18E3439F4E3E0F0E089E056
:1073800080935700849196C1813539F4E2E0F0E0B2
:1073900089E08093570084918DC1823631F489E56C
:1073A00026DF80E024DF80E885C1823419F087364B
:1073B00009F0E5C01092AD011092AC0100DF082F7A
:1073C000FEDEF82EFCDE682E8554823008F071C196
:1073D000902F80E0CF2DD0E0C82BD92B10926F00DA
:1073E000173609F04BC081E180935700E895DD2402
:1073F000CC24C3943FC0E090AE01F090AF01009167
:10740000B0011091B101B6E46B16D9F4ED2DF0E0A6
:10741000EE29FF29E4918E2FEADEDD2081F082E063
:1074200090E0A0E0B0E0E80EF91E0A1F1B1FE092FA
:10743000AE01F092AF010093B0011093B101DC24D2
:1074400018C0D801C701B695A7959795879555D5CA
:10745000CEDE82E090E0A0E0B0E0E80EF91E0A1F68
:107460001B1FE092AE01F092AF010093B0011093A8
:10747000B1012197209709F0BECF7DC08090AE0169
:107480009090AF01A090B001B090B10196E4691660
:1074900009F05DC083E0F40180935700E89507B6DA
:1074A00000FCFDCF54C0F6E46F1661F5772031F192
:1074B000E090AE01F090AF010091B0011091B101E8
:1074C0007EDED82ECC24852D90E08C299D29F701D5
:1074D0000C0140925700E895112482E090E0A0E072
:1074E000B0E0E80EF91E0A1F1B1FE092AE01F092F9
:1074F000AF010093B0011093B10102C060DE582EBD
:10750000742423C0E090AE01F090AF010091B0016F
:107510001091B10116950795F794E79450DE682F06
:10752000C701F3D48091AE019091AF01A091B00159
:10753000B091B1010296A11DB11D8093AE0190934F
:10754000AF01A093B001B093B101219704C05524BD
:10755000772444244394209709F0A5CF96E4691634
:1075600041F485E0F40180935700E89507B600FCEC
:10757000FDCF8DE03CDE82E080936F009CC08334C1
:1075800071F40091AE011091AF0119DE90E021E09D
:10759000F8010C0120935700E89511247CCE833626
:1075A00019F5E090AE01F090AF010091B00110919B
:1075B000B10105DEF701E16090E021E00C012093CC
:1075C0005700E895112482E090E0A0E0B0E0E80EDA
:1075D000F91E0A1F1B1FE092AE01F092AF0100934B
:1075E000B0011093B10157CE8D3661F4E091AE0138
:1075F000F091AF0185E080935700E89507B600FC55
:10760000FDCF49CE823551F4E091AE01F091AF014A
:1076100005911491812FEBDD802F4CC0843421F52E
:10762000E090AE01F090AF010091B0011091B10176
:1076300016950795F794E794C2DD682FC70165D4C6
:107640008091AE019091AF01A091B001B091B101D4
:107650000296A11DB11D8093AE019093AF01A0933E
:10766000B001B093B10117CE843609F5E090AE01B8
:10767000F090AF010091B0011091B101D801C701A4
:10768000B695A7959795879538D4B1DD82E090E0BF
:10769000A0E0B0E0E80EF91E0A1F1B1FE092AE0149
:1076A000F092AF010093B0011093B10104C08B318F
:1076B00011F08FE39CDD83E08093E9009091E80076
:1076C0008091E8008E778093E80095FF04C010C099
:1076D0008EB38823C9F08091E80080FFF9CF8091B4
:1076E000E8008E778093E80003C08EB3882361F0B2
:1076F0008091E80080FFF9CF84E08093E9008091D9
:10770000E8008B778093E800DF91CF911F910F9174
:10771000FF90EF90DF90CF90BF90AF909F908F90B1
:107720007F906F905F904F9008959091B601892F50
:107730008F77813249F58091B7018032A1F0813293
:1077400019F5913A09F58091E800877F8093E80068
:107750008DE091E067E070E007D28091E8008B77E0
:107760008093E8000895913279F48091E800877F52
:107770008093E8008DE091E067E070E059D280915D
:10778000E8008E778093E800089582E061EC42E0A3
:10779000B1D083E061E842E1ADD084E060E842E14D
:1077A000A9C084B7877F84BF88E10FB6F89480931F
:1077B0006000109260000FBE20E880E090E00FB6FD
:1077C000F89420936100809361000FBE81E085BF33
:1077D00092E095BF3F9A209A559AE1E6F0E0208327
:1077E000108247985D9A289A109289008AEF8093B8
:1077F000880090936F0083E080938100ECC04091FB
:10780000000850910108109201081092000824B756
:1078100014BE88E10FB6F894809360001092600067
:107820000FBE822F90E0FC01E270F07021FD14C0C9
:10783000213019F4859194910BC0283069F480911E
:10784000090190910A014817590731F085919491E7
:107850008F5F9F4F09F046DCA4DF78941092AD0152
:107860001092AC010CC0E2DC36D38091AC01909157
:10787000AD0181549F4110F01092140145DC8091BC
:107880001401882381F78091E00081608093E000FB
:1078900029DC80E090E00895FA01923049F09330BD
:1078A00061F09130F9F485E191E022E130E01EC011
:1078B00087E291E02EE330E019C0882329F485E6C1
:1078C00091E024E030E012C0813029F489E691E0B3
:1078D00022E230E00BC0823029F48DE891E028E10B
:1078E00030E004C080E090E020E030E091838083CD
:1078F000C90108958093E9008091EB008160809335
:10790000EB001092ED006093EC004093ED0080914D
:10791000EE00881F8827881F08958091B60188236C
:107920008CF403C08EB38823B1F08091E80082FF0D
:10793000F9CF8091E8008B778093E80008958EB3AB
:10794000882349F08091E80080FFF9CF8091E8001A
:107950008E778093E8000895EF92FF920F931F9324
:1079600045D04CD008ED10E0F80180818F778083FE
:1079700080818068808380818F7D808319BC1EBA5E
:107980001092B40180EEE82EF12CF70180818B7FFC
:107990008083F80180818160808380E060E042E044
:1079A000A9DFE1EEF0E080818E7F8083E2EEF0E0FF
:1079B000808181608083808188608083F7018081FD
:1079C0008E7F8083F8018081806180831F910F9179
:1079D000FF90EF900895E7EDF0E080818160808373
:1079E0008AE482BF81E08093B501B6CFE8EDF0E094
:1079F00080818E7F80831092E20008951092DA00D9
:107A00001092E10008951F920F920FB60F92112469
:107A10002F933F934F935F936F937F938F939F9396
:107A2000AF93BF93EF93FF938091DA0080FF1BC069
:107A30008091D80080FF17C08091DA008E7F8093FC
:107A4000DA008091D90080FF0BC080E189BD82E11E
:107A500089BD09B400FEFDCF81E08EBB3BD203C0DF
:107A600019BC1EBA37D28091E10080FF17C0809107
:107A7000E20080FF13C08091E2008E7F8093E200DD
:107A80008091E20080618093E2008091D800806262
:107A90008093D80019BC85E08EBB1CD28091E10098
:107AA00084FF2CC08091E20084FF28C080E189BD62
:107AB00082E189BD09B400FEFDCF8091D8008F7DA1
:107AC0008093D8008091E1008F7E8093E1008091C7
:107AD000E2008F7E8093E2008091E20081608093DB
:107AE000E2008091B401882331F48091E30087FDA6
:107AF00002C081E001C084E08EBBECD18091E10046
:107B000083FF21C08091E20083FF1DC08091E100CE
:107B1000877F8093E10082E08EBB1092B401809158
:107B2000E1008E7F8093E1008091E2008E7F809360
:107B3000E2008091E20080618093E20080E060E0FA
:107B400042E0D8DEC7D1FF91EF91BF91AF919F91F5
:107B50008F917F916F915F914F913F912F910F90F6
:107B60000FBE0F901F9018959C014091BC01509141
:107B7000BD014617570718F4F90190E044C061159C
:107B8000710511F0AB01F8CF8091E8008E778093FA
:107B9000E80040E050E0F0CF8EB3882309F444C001
:107BA000853009F443C08091E80083FF02C081E082
:107BB00008958091E80082FD31C08091E80080FF47
:107BC00022C08091F3009091F200782F60E0292F7D
:107BD00030E0262B372B07C081918093F100415074
:107BE00050402F5F3F4F4115510519F028303105A6
:107BF00098F390E02830310509F491E08091E80095
:107C00008E778093E8004115510531F6992321F6CE
:107C100005C08EB3882341F0853041F08091E800A3
:107C200082FFF7CF80E0089582E0089583E0089511
:107C30009C016115710529F48091E8008B77809390
:107C4000E800F90126C08EB3882391F1853091F1C7
:107C50008091E80083FF02C081E008958091E800F0
:107C600082FFF1CF06C08091F10081936150704096
:107C700059F02091F3008091F200322F20E090E043
:107C8000822B932B892B79F78091E8008B77809357
:107C9000E80061157105B9F605C08EB3882341F07F
:107CA000853041F08091E80080FFF7CF80E00895B3
:107CB00082E0089583E008950F931F93DF93CF939D
:107CC00000D0CDB7DEB7E6EBF1E08091F100819313
:107CD00081E0EE3BF807C9F728DD8091E80083FFDB
:107CE000E4C08091B6019091B701953009F46DC060
:107CF000963040F4913081F1913070F0933009F07A
:107D0000D4C02AC0983009F4A3C0993009F4B2C095
:107D1000963009F0CAC07CC0803809F4C6C08238E9
:107D200009F0C3C08091BA0187708093E900809107
:107D3000EB001092E9002091E800277F2093E800F3
:107D400090E025E0969587952A95E1F781708093DC
:107D5000F1001092F10087C0882319F0823009F0F9
:107D6000A4C08F71823009F0A0C08091B80188232F
:107D700031F52091BA01277009F497C02093E900EA
:107D80008091EB0080FF1BC0933021F48091EB00C9
:107D9000806213C08091EB0080618093EB0081E0F2
:107DA00090E002C0880F991F2A95E2F78093EA00BD
:107DB0001092EA008091EB0088608093EB001092B3
:107DC000E9008091E800877F51C0882309F06DC0E9
:107DD0001091B8011F770FB7F8948091E800877F62
:107DE0008093E8009ADD8091E80080FFFCCF8091CD
:107DF000E3008078812B8093E30080688093E30028
:107E0000112311F482E001C083E08EBB0FBF4DC08F
:107E10008058823008F049C08091B8019091B90132
:107E20006091BA01AE014F5F5F4F36DDBC01009734
:107E300009F43BC08091E800877F8093E800898146
:107E40009A8192DE8091E8008B778093E8002DC0C4
:107E5000803859F58091E800877F8093E800809111
:107E6000B4018093F1008091E8008E778093E80060
:107E700054DD1BC08823C9F49091B8019230A8F456
:107E80008091E800877F8093E8009093B40145DDFE
:107E90008091B401882331F48091E30087FD02C012
:107EA00081E001C084E08EBB70DC8091E80083FF3C
:107EB0000AC08091EB0080628093EB008091E80023
:107EC000877F8093E8000F900F90CF91DF911F91F3
:107ED0000F91089508951F938EB3882361F0109138
:107EE000E9001092E9008091E80083FF01C0E4DE20
:107EF00017701093E9001F910895F999FECF92BD74
:107F000081BDF89A992780B50895262FF999FECF5B
:107F10001FBA92BD81BD20BD0FB6F894FA9AF99AA6
:107F20000FBE01960895F894FFCF4341544552493E
:107F30004E410077770008000000000000080112A1
:107F40000110010200000841233600010002010077
:107F50000109023E00020100803209040000010212
:107F60000201000524001001042402040524060077
:107F700001070582030800FF09040100020A00004E
:107F80000007050402100001070583021000010428
:107F90000309042203410072006400750069006E49
:107FA000006F0020004C0065006F006E00610072E1
:107FB0000064006F00000018034100720064007547
:107FC0000069006E006F0020004C004C0043000070
:107FD0000000FFFFFFFFFFFFFFFFFFFFFFFFFFFFAF
:107FE000FFFFFFFFFFFFFFFFFFFFFFFFFFFFFFFFA1
:107FF000FFFFFFFFFFFFFFFFFFFFFFFFFFFFFFFF91
:00000001FF
